:100000000C9434000C9451000C9451000C94510049
:100010000C9451000C9451000C9451000C9451001C
:100020000C9451000C9451000C9451000C9451000C
:100030000C9451000C9451000C9451000C945100FC
:100040000C9451000C9451000C9451000C945100EC
:100050000C9451000C9451000C9451000C945100DC
:100060000C9451000C94510011241FBECFEFD8E026
:10007000DEBFCDBF15E0A0E0B1E0E8EDF4E002C0E6
:1000800005900D92A030B107D9F725E0A0E0B5E0CA
:1000900001C01D92A030B207E1F70E9453000C94FA
:1000A0006A020C940000CF93DF93CDB7DEB7D45033
:1000B0000FB6F894DEBF0FBECDBF0E94BB00CE01CD
:1000C00001960E943601CE0101967C0100E420E8F1
:1000D00040E051E060E080E00E949401C7010E948E
:1000E00025029FEF23ED80E3915020408040E1F70F
:1000F00000C00000C7010E94360184E08AB95A9A04
:100100009FEF24E38CE0915020408040E1F700C055
:1001100000005A989FEF24E38CE0915020408040EB
:10012000E1F700C00000EBCF8FEF84B908958CE2B7
:1001300084B980E58CBD0895680F791F86179707ED
:1001400041F0FC012191CF012EBD0DB407FEFDCF82
:10015000F5CF0895CF93DF931F92CDB7DEB7898394
:10016000289861E070E0CE0101960E949C000F90FB
:10017000DF91CF9108950E9497008FE19EE401974F
:10018000F1F700C000000E9494008FE19EE4019707
:10019000F1F700C000002A9A9FEF20E782E091501B
:1001A00020408040E1F700C000002A988FE19EE4E3
:1001B0000197F1F700C00000299A8FE19EE40197B2
:1001C000F1F700C0000029988FE19EE40197F1F754
:1001D00000C00000299A8EEA0E94AA0082E00E94D4
:1001E000AA0080E10E94AA0080E40E94AA0081E89F
:1001F0000E94AA0080EA0E94AA0080EC0E94AA0045
:1002000086EA0E94AA0088EA0E94AA008FE30E9460
:10021000AA0083ED0E94AA0080E00E94AA0085ED5A
:100220000E94AA0080E80E94AA0089ED0E94AA000C
:1002300081EF0E94AA008AED0E94AA0082E10E943A
:10024000AA008BED0E94AA0080E40E94AA0080E22E
:100250000E94AA0082E00E94AA0084EA0E94AA00EA
:1002600086EA0E94AA008FEA0C94AA009C013C5FD7
:10027000FC011192CF01E217F307D1F708958138FD
:1002800091050CF050C0613471050CF04CC0442352
:1002900021F1DB0177FD179643E0B595A7954A95C7
:1002A000E1F7B695BA2FAA27B795A795AC014A0FE3
:1002B0005B1FF901E40FF51FCB0168E070E00E94BD
:1002C000420221E030E0A90102C0440F551F8A9587
:1002D000E2F7CA019081892B25C0AB0177FF02C0EC
:1002E000495F5F4FE3E055954795EA95E1F75695ED
:1002F000542F442757954795480F591FF901E40F8C
:10030000F51FCB0168E070E00E94420221E030E07E
:10031000A90102C0440F551F8A95E2F7CA018095D2
:1003200090818923808308952F923F924F925F920C
:100330006F927F928F929F92AF92BF92CF92DF92F5
:10034000EF92FF920F931F93CF93DF93CDB7DEB75A
:1003500028970FB6F894DEBF0FBECDBF4A01C22E5C
:10036000D12C9601295F3F4FA90193E05595479500
:100370009A95E1F75A834983202E312CA12CB12C78
:1003800000E010E0A62FB0E0BE83AD83682E712C94
:100390000215130509F440C018861F82D401AA0D66
:1003A000BB1DBC83AB834D805E80400E511E4F81D0
:1003B00058854C155D0549F18F8186958695869502
:1003C000EB81FC81E80FF11D8081282F30E08F81C7
:1003D0008770E0E8F0E002C0F595E7958A95E2F7CE
:1003E000CF0182239323892B49F0970141E0B20189
:1003F0008F819885860D971D0E943F012F8138853A
:100400002F5F3F4F38872F83D2CF0F5F1F4F8981D8
:100410009A81A80EB91EBCCF28960FB6F894DEBFFD
:100420000FBECDBFDF91CF911F910F91FF90EF9045
:10043000DF90CF90BF90AF909F908F907F906F9004
:100440005F904F903F902F9008950F931F93CF93FD
:100450008C01C0EB8C2F0E94AA0082E00E94AA00AF
:1004600080E10E94AA00289A60E870E0C8010E941A
:100470009C0000581F4FCF5FC83B61F7CF911F9181
:100480000F91089597FB072E16F4009407D077FD7F
:1004900009D00E94560207FC05D03EF49095819544
:1004A0009F4F0895709561957F4F0895AA1BBB1BC0
:1004B00051E107C0AA1FBB1FA617B70710F0A61B64
:1004C000B70B881F991F5A95A9F780959095BC0185
:0804D000CD010895F894FFCF5F
:1004D8000000000000000000000000000000000014
:1004E8000000000000000000000000000000000004
:1004F8001111009C64421C787A78EFB830898C70AE
:100508001991889CF4631E787A79EF3C78899EF07B
:10051800099188B18463124042430224CCC93080D7
:10052800099188B1846712404242022484C920801C
:10053800099289B0846512404242022484C920C0CD
:100548000AB24D1CC7E596787A72022C84A92060FD
:100558000AA2451467E49C707252023884A92030BC
:100568000A63C530346794404242022884B9201097
:100578000667C730146F92404242022484992010C3
:100588000664663014689240424302248C99201015
:100598000664223DB468D3787A79E2267889BEF079
:1005A8000444221CE44851787A79E22270899EE05A
:1005B8000000000000000000000000000000000033
:1005C8000000000000000000000000000000000023
:1005D8000000000000000000000000000000000013
:1005E8000000000000000000000000000000000003
:1005F80000000000000000000000000000000000F3
:1006080000000000000000000000000000000000E2
:1006180000000000000000000000000000000000D2
:1006280000000000000000000000000000000000C2
:1006380000000000000000000000000000000000B2
:1006480000000000000000000000000000000000A2
:100658003FFFF00000000000000000000000000064
:100668003FFFFE0000000000000000000000000046
:100678003FFFFF800008300000000010000000006D
:100688003FFFF7C006DB303FFFFC0070007FFFF044
:100698003FFFE7E00EDB303FFFFC7FFFF87FFFF016
:1006A8003FFFC7F00CDB7E0018007FFFF87FFFF0EC
:1006B8003FFF87F01CDBFE0018007FFFF80000F00A
:1006C8003FFF07F81CDBF03FFFFC6070380001E0DB
:1006D8003FFF87FC18DBC03FFFF86070380001C09F
:1006E80020C3863C06FF003018186070380003C02D
:1006F80030C30C3C06FF0C301818607038000380BB
:1007080030430C1E0EFF6C3318D860703807FF009A
:1007180030001C1E0E006C339BD870703807FF0029
:100728003800080E1CFE7C3018187FFFF807FE0002
:100738003800080E1CFE3C3019187FFFF807FE0031
:10074800380000061CFE38319B98607038000E0097
:100758003C1000860C00383399D8607038000E00C1
:100768003C1000820C0038000000607038000E0059
:100778003C1841860C7E38000000607038FFFFF09E
:100788001E3841860C7E183FFFF8607038FFFFF076
:100798001E38E38E0C7E183FFFF8607038FFFFF0BC
:1007A8001E7CE20E0C66380000187FFFF8000E0071
:1007B8001FFFFE1E0C66380000187FFFF0000E00B9
:1007C8000FFFFE0E0C66381FFFF87FFFF0000E00CB
:1007D8000FFFFE1E0C663C1FFFF8007000000E00A5
:1007E80007FFFE3E0C663C100038007000000E004B
:1007F80003FFFE7E0C667C000018007000001E00DF
:1008080001FFFEFE0CE7EE000018007FF83FFE0037
:1008180000FFFFFE0CE7EE3FFFF8003FF83FFE0049
:10082800007FFFFE0CC7C63FFFF8003FF83FFC0003
:10083800001FFFFE00000000000000000000000094
:100848000003FFFE000000000000000000000000A0
:100858000000000000000000000000000000000090
:100868000000000000000000000000000000000080
:100878000000000000000000000000000000000070
:100888000000000000000000000000000000000060
:100898000000000000000000000000000000000050
:1008A8000000000000000000000000000000000040
:1008B8000000000000000000000000000000000030
:1008C8000000000000000000000000000000000020
:00000001FF
