S0130000426C696E6B696E674C65642E73726563CE
S11300000C9434000C94AD000C9451000C945100E9
S11300100C9451000C9451000C9451000C946B00FE
S11300200C9451000C9451000C9451000C94510008
S11300300C9451000C9451000C9451000C945100F8
S11300400C9451000C9451000C9451000C945100E8
S11300500C9451000C9451000C9451000C945100D8
S11300600C9451000C94510011241FBECFEFD8E022
S1130070DEBFCDBF11E0A0E0B1E0E6E2F4E002C0F3
S113008005900D92AA32B107D9F721E0AAE2B1E0B6
S113009001C01D92A633B207E1F70E94C9010C9476
S11300A011020C9400001092C50083E38093C400F5
S11300B088E18093C10086E08093C2000895FC012A
S11300C09191992339F08091C00085FFFCCF9093E2
S11300D0C600F6CF08951F920F920FB60F92112407
S11300E08F939F9380913101813089F490913001F5
S11300F0911103C08093300129C05A9A10923001A3
S113010082E08093310188E28093B3001FC0823083
S113011099F48FEF8093B30052985A9AE89880919B
S11301206900836080936900E09AE89A1092B200B3
S113013083E0809331010AC088E0809331011092FA
S1130140B100E898529A5A9A10922F019F918F9178
S11301500F900FBE0F901F9018951F920F920FB61D
S11301600F9211242F933F934F935F938F939F93F9
S11301709091B2001092B20080913101833099F4D1
S113018099529B3308F06BC0E898809169008260B3
S113019080936900809169008E7F80936900E09A62
S11301A0E89A84E06AC0843031F49D53973208F0B1
S11301B056C085E062C0853009F051C0933308F41D
S11301C04EC080912F019F3608F446C0913A08F042
S11301D046C08031A8F44FE050E0481B510921E0AB
S11301E030E002C0220F331F4A95E2F740912D01FF
S11301F050912E01242B352B30932E0120932D0169
S113020090EF980F9031A8F44FE150E0481B51094A
S113021021E030E002C0220F331F4A95E2F74091FB
S11302202B0150912C01242B352B30932C0120933E
S11302302B0190EE980F983078F447E250E0481B79
S1130240510921E030E001C0220F4A95EAF790916C
S11302502A01292B20932A018F5F80932F018091FB
S11302602F01883260F01092B1001092B200E89829
S1130270529A5A9A10922F0186E0809331019F91ED
S11302808F915F914F913F912F910F900FBE0F90DF
S11302901F901895CF93DF93FC0180913101863034
S11302A009F03FC080912D0190912E01692F70E0DB
S11302B0909332018093340120912B0130912C01D1
S11302C0432F55274093330120933501A0912A01F0
S11302D0B0E0680F711D460F571F420F511D55277F
S11302E0A417B507D9F4CAE0D0E0BE010E94FD010D
S11302F062838383C90137FF0AC09F7790932C01DF
S113030080932B01BE010E94FD01619503C0BE01D3
S11303100E94FD016083818387E001C089E08093AE
S1130320310180913101DF91CF910895529A5A9A07
S113033082E08093B000809370001092B10010921C
S11303403101089580913101882319F08750833059
S1130350F0F410922C0110922B0110922E011092A5
S11303602D0110922A011092300110922F01E89869
S1130370529A5A988FEF8093B3001092B20081E0A2
S11303808093310182E08093B1008BE008958AE08C
S11303900895CF93DF9300D000D0CDB7DEB787E0C8
S11303A087B918B80E9453000E949601789411E00E
S11303B088B1812788B90E94A2018730A1F08930D1
S11303C019F480E091E004C0883041F488E191E0C0
S11303D00E945F0085E191E00E945F00CE010196DA
S11303E00E944A01EACF2FEF89E698E1215080402C
S11303F09040E1F700C00000DBCFAA1BBB1B51E11A
S113040007C0AA1FBB1FA617B70710F0A61BB70B80
S1130410881F991F5A95A9F780959095BC01CD0125
S10904200895F894FFCFDB
S1130426444854323220636865636B73756D206586
S113043672726F72000D0A004448543232206E6F95
S10D04467420726573706F6E640019
S9030000FC
