S0130000426C696E6B696E674C65642E73726563CE
S11300000C9434000C94EC000C9451000C945100AA
S11300100C9451000C9451000C9451000C94AA00BF
S11300200C9451000C9451000C9451000C94510008
S11300300C9451000C9451000C9451000C945100F8
S11300400C9451000C9451000C9451000C945100E8
S11300500C9451000C9451000C9451000C945100D8
S11300600C9451000C94510011241FBECFEFD8E022
S1130070DEBFCDBF11E0A0E0B1E0E4E7F5E002C0EF
S113008005900D92A635B107D9F721E0A6E5B1E0B8
S113009001C01D92AC36B207E1F70E9408020C942D
S11300A0B8020C9400001092C50083E38093C4004E
S11300B088E18093C10086E08093C2000895FC012A
S11300C09191992339F08091C00085FFFCCF9093E2
S11300D0C600F6CF08958F929F92AF92BF92CF92AF
S11300E0DF92EF92FF920F931F93CF93DF938C01D4
S11300F0D62F622FC1E0ED2EF12C8AE0882E912CB0
S1130100A12CB12CEC2FF0E0DC1788F06701CE1A9B
S1130110DF0AC00ED11E732FCA01A50194010E94EB
S11301209602605DF6016083622FCF5FEBCFE00F34
S1130130F11F31971082C801DF91CF911F910F9168
S1130140FF90EF90DF90CF90BF90AF909F908F90F3
S11301500C945F001F920F920FB60F9211248F938D
S11301609F9380916701813089F490915C01911192
S113017003C080935C0129C05A9A10925C0182E00A
S11301808093670188E28093B3001FC0823099F4A2
S11301908FEF8093B30052985A9AE898809169003F
S11301A0836080936900E09AE89A1092B20083E039
S11301B0809367010AC088E0809367011092B100C0
S11301C0E898529A5A9A10925B019F918F910F90DE
S11301D00FBE0F901F9018951F920F920FB60F929B
S11301E011242F933F934F935F938F939F939091F9
S11301F0B2001092B20080916701833099F4995251
S11302009B3308F06BC0E89880916900826080930A
S11302106900809169008E7F80936900E09AE89A72
S113022084E06AC0843031F49D53973208F056C09C
S113023085E062C0853009F051C0933308F44EC0A4
S113024080915B019F3608F446C0913A08F046C09D
S11302508031A8F44FE050E0481B510921E030E020
S113026002C0220F331F4A95E2F740915901509181
S11302705A01242B352B30935A012093590190EFC6
S1130280980F9031A8F44FE150E0481B510921E048
S113029030E002C0220F331F4A95E2F74091570124
S11302A050915801242B352B30935801209357013A
S11302B090EE980F983078F447E250E0481B5109CB
S11302C021E030E001C0220F4A95EAF790915601EF
S11302D0292B209356018F5F80935B0180915B01F2
S11302E0883260F01092B1001092B200E898529AED
S11302F05A9A10925B0186E0809367019F918F91D7
S11303005F914F913F912F910F900FBE0F901F90CF
S11303101895CF93DF93FC0180916701863009F033
S11303203FC08091590190915A01692F70E09093D8
S1130330680180936A012091570130915801432F3D
S113034055274093690120936B01A0915601B0E0B9
S1130350680F711D460F571F420F511D5527A417D3
S1130360B507D9F4CAE0D0E0BE010E9482026283DC
S11303708383C90137FF0AC09F7790935801809304
S11303805701BE010E948202619503C0BE010E9412
S113039082026083818387E001C089E080936701E2
S11303A080916701DF91CF910895529A5A9A82E021
S11303B08093B000809370001092B1001092670196
S11303C0089580916701882319F087508330F0F4F1
S11303D0109258011092570110925A01109259012B
S11303E01092560110925C0110925B01E898529AA7
S11303F05A988FEF8093B3001092B20081E08093FB
S1130400670182E08093B1008BE008958AE008954B
S1130410CF93DF9300D000D0CDB7DEB787E087B9A4
S113042018B80E9453000E94D501789411E088B155
S1130430812788B90E94E1018730A1F0893019F43D
S113044080E091E004C0883041F488E191E00E94AA
S11304505F0085E191E00E945F00CE0101960E9459
S11304608901EACF8AE291E00E945F002981022E8D
S1130470000C330B440B550B6AE08DE591E00E94B0
S11304806B0085E191E00E945F0080E491E00E94AE
S11304905F002A8130E040E050E06AE08DE591E0C1
S11304A00E946B0085E191E00E945F008AE291E086
S11304B00E945F002B8130E040E050E06AE08DE56F
S11304C091E00E946B0085E191E00E945F0080E46E
S11304D091E00E945F002C8130E040E050E06AE04F
S11304E08DE591E00E946B0085E191E00E945F0040
S11304F02FEF89E698E1215080409040E1F700C059
S1130500000095CFAA1BBB1B51E107C0AA1FBB1F4C
S1130510A617B70710F0A61BB70B881F991F5A958B
S1130520A9F780959095BC01CD010895A1E21A2EFA
S1130530AA1BBB1BFD010DC0AA1FBB1FEE1FFF1F83
S1130540A217B307E407F50720F0A21BB30BE40BD3
S1130550F50B661F771F881F991F1A9469F760951A
S11305607095809590959B01AC01BD01CF010895D4
S1070570F894FFCF29
S1130574444854323220636865636B73756D206537
S113058472726F72000D0A004448543232206E6F46
S11305947420726573706F6E640054656D70657257
S11305A4617475726520696E74656772616C3A0072
S11305B454656D70657261747572652064656369F0
S10905C46D616C3A0000B9
S9030000FC
