:100000000C94CA070C94E7070C94E7070C94E707D5
:100010000C94E7070C94E7070C94E7070C94E707A8
:100020000C94E7070C94E7070C94E7070C94E70798
:100030000C94E7070C94E7070C94E7070C94E70788
:100040000C94E7070C94E7070C94E7070C94E70778
:100050000C94E7070C94E7070C94E7070C94E70768
:100060000C94840B0C94E707C3BD42524E423CC330
:10007000C39924202C2499C31854321C1C325418C0
:100080000FFE300226DA26DA26DA26DA30020FFEF2
:100090001FF810081818142813C8100810081FF8A3
:1000A000FE02920A542A38AA12AA12AA12AA12AA64
:1000B000000000000000000000003FF1818FFC3FC5
:1000C000F1818FFC3031818C0C3001818C0C30013E
:1000D000818C0C3FF1818C0C3FF1818C0C003181C3
:1000E0008C0C0031818C0C3031818C0C3FF1FF8CF9
:1000F0000C3FF1FF8C0C000000000000000000002D
:1001000000000000000000000000000000000000EF
:1001100000000000000000003FFFFFFC3FFFFFFC6D
:100120003000000C3000000C3000000C3000000CDF
:100130003000000C3000000C3000000C3000000CCF
:100140003FFFFFFC3FFFFFFC00000000000000003D
:10015000000000000000000000000000000000009F
:10016000000000000000000030000000300000002F
:100170003FFFFFFC3FFFFFFC00000000000000000D
:10018000000000000000000000000000000000006F
:1001900000000000000000003C01FFFC3C01FFFCEF
:1001A0003001800C3001800C3001800C3001800C5B
:1001B0003001800C3001800C3001800C3001800C4B
:1001C0003FFF800C3FFF800C00000000000000009B
:1001D00000000000000000003800003C3800003C37
:1001E0003001800C3001800C3001800C3001800C1B
:1001F0003001800C3001800C3001800C3001800C0B
:100200003FFFFFFC3FFFFFFC00000000000000007C
:1002100000000000000000003FFF80003FFF800062
:1002200000018000000180000001800000018000CA
:1002300000018000000180000001800000018000BA
:100240003FFFFFFC3FFFFFFC00000000000000003C
:1002500000000000000000003FFF803C3FFF803CAA
:100260003001800C3001800C3001800C3001800C9A
:100270003001800C3001800C3001800C3001800C8A
:100280003001FFFC3001FFFC000000000000000016
:1002900000000000000000003FFFFFFC3FFFFFFCEC
:1002A0003001800C3001800C3001800C3001800C5A
:1002B0003001800C3001800C3001800C3001800C4A
:1002C0003C01FFFC3C01FFFC0000000000000000BE
:1002D00000000000000000003C0000003C000000A6
:1002E000300000003000000030000000300000004E
:1002F000300000003000000030000000300000003E
:100300003FFFFFFC3FFFFFFC00000000000000007B
:1003100000000000000000003FFFFFFC3FFFFFFC6B
:100320003001800C3001800C3001800C3001800CD9
:100330003001800C3001800C3001800C3001800CC9
:100340003FFFFFFC3FFFFFFC00000000000000003B
:1003500000000000000000003FFF803C3FFF803CA9
:100360003001800C3001800C3001800C3001800C99
:100370003001800C3001800C3001800C3001800C89
:100380003FFFFFFC3FFFFFFC0000000000000000FB
:10039000000000000000000000000000000000005D
:1003A000000000000FF00FF00FF00FF00C00003015
:1003B0000C0000300FF00FF00FF00FF00000000005
:1003C000000000000000000000000000000000002D
:1003D00000003FFC3FFC300C300C300C300C300C7B
:1003E000300C300C300C300C300C3FFC3FFC00006B
:1003F00000000000000000000000000000003000CD
:1004000030003FFC3FFC0000000000000000000046
:10041000000039FC39FC318C318C318C318C318CC1
:10042000318C318C318C318C318C3F8C3F8C000085
:100430000000381C381C318C318C318C318C318C63
:10044000318C318C318C318C318C3FFC3FFC000085
:1004500000003F803F800180018001800180018099
:10046000018001800180018001803FFC3FFC000091
:1004700000003FBC3FBC318C318C318C318C318CD5
:10048000318C318C318C318C318C31FC31FC000061
:1004900000003F9C3F9C318C318C318C318C318CF5
:1004A000318C318C318C318C318C31FC31FC000041
:1004B00000003800380030003000300030003000DC
:1004C000300030003000300030003FFC3FFC0000C6
:1004D00000003FFC3FFC318C318C318C318C318CF5
:1004E000318C318C318C318C318C3FFC3FFC0000E5
:1004F00000003F9C3F9C318C318C318C318C318C95
:10050000318C318C318C318C318C3FFC3FFC0000C4
:100510000000000000000000000000000000183093
:100520001830000000000000000000000000000083
:1005300000000000000000000000000000000000BB
:100540000000000000001FCC000C000000000000B4
:10055000000008003000600008003000600000006B
:10056000022003FC1E20022003FC1E2002200000AB
:1005700000000E1811043FFF10840C7800000000EA
:100580000F0010840F3800C007781884007800002E
:1005900000780F8410C411240E9800E40084000831
:1005A000080068007000000000000000000000006B
:1005B00000000000000007E01818200440020000BE
:1005C000000040022004181807E0000000000000AE
:1005D0000240024001800FF0018002400240000012
:1005E0000080008000800FF8008000800080000004
:1005F0000001000D000E00000000000000000000DF
:10060000000000800080008000800080008000806A
:100610000000000C000C00000000000000000000C2
:10062000000000060018006001800600180020008D
:10063000000007F0080810041004080807F0000084
:100640000000080408041FFC00040004000000006F
:1006500000000E0C10141024104411840E0C000025
:1006600000000C1810041104110412880C70000012
:10067000000000E00320042408241FFC00240000E4
:1006800000001F98108411041104108810700000DD
:10069000000007F008881104110418880070000099
:1006A00000001C00100010FC13001C0010000000D3
:1006B00000000E3811441084108411440E380000DC
:1006C00000000700088C10441044088807F0000060
:1006D000000000000000030C030C000000000000FC
:1006E0000000000000010106000000000000000002
:1006F00000000080014002200410080810040000DF
:1007000002200220022002200220022002200000FB
:1007100000001004080804100220014000800000BE
:1007200000000E001200100C106C10800F00000072
:1007300003E00C1813E4142417C4082807D00000A1
:100740000004003C03C41C40074000E4001C0004FB
:1007500010041FFC1104110411040E880070000025
:1007600003E00C1810041004100410081C10000002
:1007700010041FFC100410041004080807F0000007
:1007800010041FFC1104110417C410040818000001
:1007900010041FFC1104110017C010000800000015
:1007A00003E00C181004100410441C7800400000F2
:1007B00010041FFC10840080008010841FFC1004B3
:1007C0000000100410041FFC1004100400000000BE
:1007D00000030001100110011FFE100010000000B6
:1007E00010041FFC110403801464181C1004000082
:1007F00010041FFC1004000400040004000C00009E
:1008000010041FFC1F0000FC1F001FFC1004000050
:1008100010041FFC0C04030000E010181FFC100063
:1008200007F00808100410041004080807F000007E
:1008300010041FFC10841080108010800F00000036
:1008400007F0081810241024101C080A07F20000F2
:1008500010041FFC1104110011C011300E0C000413
:1008600000000E1C11041084108410441C38000079
:100870001800100010041FFC1004100018000000E5
:1008800010001FF810040004000410041FF81000EA
:1008900010001E0011E0001C007013801C001000EE
:1008A0001FC0103C00E01F0000E0103C1FC0000013
:1008B0001004180C163401C001C01634180C1004B2
:1008C00010001C00130400FC13041C0010000000A6
:1008D0000804101C1064108413041C041018000079
:1008E0000000000000007FFE4002400240020000C5
:1008F000000030000C0003800060001C00030000BA
:1009000000004002400240027FFE000000000000A4
:1009100000000000200040004000400020000000D7
:1009200000010001000100010001000100010001BF
:100930000000400040002000000000000000000017
:1009400000000098012401440144014400FC00041B
:1009500010001FFC008801040104008800700000E2
:1009600000000070008801040104010400880000F8
:100970000000007000880104010411081FFC00043D
:10098000000000F8014401440144014400C8000093
:100990000000010401040FFC1104110411001800EF
:1009A000000000D601290129012901C90106000022
:1009B00010041FFC008401000100010400FC00047D
:1009C00000000104190419FC0004000400000000E8
:1009D0000000000300010101190119FE00000000E0
:1009E00010041FFC0024004001B4010C01040000AD
:1009F0000000100410041FFC0004000400000000AC
:100A0000010401FC0104010001FC0104010000FCDF
:100A1000010401FC008401000100010400FC000449
:100A2000000000F8010401040104010400F80000C2
:100A3000010101FF0085010401040088007000002D
:100A400000000070008801040104010501FF00019D
:100A50000104010401FC0084010401000180000084
:100A6000000000CC0124012401240124019800008D
:100A700000000100010007F801040104000000006B
:100A8000010001F8000400040004010801FC000456
:100A9000010001800170000C001001600180010064
:100AA00001F0010C003001C00030010C01F0010028
:100AB00000000104018C00740170018C010400002D
:100AC000010101810171000E001801600180010027
:100AD00000000184010C013401440184010C000078
:100AE000000000000000000001003EFC4002400247
:100AF0000000000000000000FFFF000000000000F8
:100B00000000400240023EFC010000000000000026
:100B100000006000800080004000400020002000B5
:100B200000000000000000000000000000000000C5
:100B30003F40000000000000000030004000300096
:100B40004000000009000BC03D000BC03D00090043
:100B500018C024407FE0224031800000180024C0EB
:100B60001B000D803240018003801C4027401C8008
:100B7000074000401000600000000000000000007E
:100B80000000000000001F802040402000004020A6
:100B900020401F8000000000090006001F800600A2
:100BA00009000000040004003F800400040000006D
:100BB00000100060000000000000000004000400BD
:100BC00004000400040000000000004000000000D9
:100BD00000000000002001C00600380040000000B6
:100BE0001F802040204020401F8000000000104057
:100BF0003FC000400000000018C0214022402440B7
:100C00001840000010802040244024401B80000039
:100C100002000D0011003FC0014000003C80244054
:100C200024402440238000001F802440244034407E
:100C3000038000003000200027C0380020000000A2
:100C40001B802440244024401B8000001C0022C044
:100C5000224022401F8000000000000008400000E9
:100C60000000000000000000046000000000000020
:100C7000000004000A001100208040400900090023
:100C80000900090009000000000040402080110018
:100C90000A0004001800200023402400180000006F
:100CA0001F802040274029401F400000004007C00F
:100CB00039000F0001C0004020403FC024402440C4
:100CC0001B8000001F80204020402040308000001A
:100CD00020403FC0204020401F80000020403FC0F7
:100CE00024402E4030C0000020403FC024402E0051
:100CF000300000000F0010802040224033800200AE
:100D000020403FC0040004003FC02040204020405D
:100D10003FC02040204000000060202020203FC035
:100D20002000200020403FC024400B0030C0204065
:100D300020403FC020400040004000C03FC03C0079
:100D400003C03C003FC0000020403FC00C402300D7
:100D50003FC020001F802040204020401F80000016
:100D600020403FC024402400180000001F80214084
:100D7000214020E01FA0000020403FC0244026006A
:100D800019C0004018C02440244022403180000097
:100D9000300020403FC020403000000020003F8055
:100DA000004000403F80200020003E0001C00700BE
:100DB00038002000380007C03C0007C038000000A1
:100DC000204039C0060039C02040000020003840D3
:100DD00007C0384020000000304021C02640384085
:100DE00020C00000000000007FE040204020000004
:100DF000000070000C000380004000000000402054
:100E000040207FE0000000000000200040002000A3
:100E10000000000000100010001000100010001072
:100E20000000000040000000000000000000028000
:100E30000540054003C0004020003FC0044004407E
:100E400003800000000003800440044006400000CE
:100E500000000380044024403FC0004000000380A5
:100E60000540054003400000000004401FC024402E
:100E700024402000000002E00550055006500420E8
:100E800020403FC00440040003C000400000044074
:100E900027C000400000000000100010041027E0F0
:100EA0000000000020403FC00140070004C0044093
:100EB000204020403FC000400040000007C0040028
:100EC00007C0040003C00000044007C00440040041
:100ED00003C0004000000380044004400380000081
:100EE000041007F004500440038000000000038059
:100EF0000440045007F00010044007C00240040002
:100F000004000000000006400540054004C0000049
:100F1000000004001F80044000400000040007801F
:100F20000040044007C000400400070004C00180E6
:100F300006000400060001C0070001C00600000012
:100F4000044006C0010006C0044000000410071061
:100F500004E00180060004000000044005C00640D3
:100F6000044000000000000004007BE0402000007E
:100F7000000000000000FFF0000000000000402022
:100F80007BE00400000000004000800040002000E2
:100F90002000400011241FBECFEFD8E0DEBFCDBF40
:100FA00011E0A0E0B1E0E2EFF7E102C005900D92A0
:100FB000AC34B107D9F725E0ACE4B1E001C01D9233
:100FC000A735B207E1F70E94E9070C94F70B0C94E0
:100FD00000000E94580B78940E94E50A8FEF0E944F
:100FE000C7082FEF89E698E1215080409040E1F753
:100FF00000C0000080E00E94C70801E020E141E05D
:1010000051E060E082E10E948B0920E14EE051E076
:1010100060E180E00E948B090E9495082FEF89E62D
:1010200098E1215080409040E1F700C0000080E04E
:101030000E94C70808E020E140EA50E062E080E05A
:101040000E94670A28E048E750E062E088E10E94D9
:10105000670A20E140E950E062E088E20E94670A06
:1010600028E040E750E062E080E40E94670A28E060
:1010700048E650E062E08AE50E94670A20E140E825
:1010800050E062E080E70E94670A42E360E180E0AE
:101090000E941D0A43E360E180E10E941D0A4AE3C9
:1010A00060E180E20E941D0A45E360E180E30E9466
:1010B0001D0A46E360E180E40E941D0A4AE360E203
:1010C00080E50E94D30944E360E280E60E94D309F0
:1010D00047E360E280E70E94D30900E128E240EBA9
:1010E00050E060E187E50E94670A00E02CE04BE3F6
:1010F00051E064E380E00E948B092CE041E451E080
:1011000064E384E30E948B092CE046E451E064E34D
:1011100082E60E948B090E949508FFCF80934C01C4
:1011200062E08CE491E00C94620BEF92FF920F93DB
:101130001F93CF9380E5E82E81E0F82EC0E060E0B9
:1011400080EB8C0F0E948E0860E080E00E948E0889
:1011500060E080E10E948E0800E010E0F701E00FFF
:10116000F11F61E080810E948E08085F1F4F01150A
:1011700084E0180799F7CF5F8FEFE81AF80AC830B4
:10118000F1F6CF911F910F91FF90EF9008950F937B
:101190001F93CF93DF93D82F00E511E0C0E060E00C
:1011A00080EB8C0F0E948E0860E080E00E948E0829
:1011B00060E080E10E948E0820E030E0F801E20F5C
:1011C000F31FD083285F3F4F211584E03807B1F724
:1011D000CF5F0F5F1F4FC83011F7DF91CF911F9185
:1011E0000F910C94950887FD2AC0603440F5962F26
:1011F00096959695969527E0291B922F677027E084
:1012000030E0261B310961E070E001C0660F2A95CD
:10121000EAF7E82FF0E0292F30E083E0EE0FFF1F20
:101220008A95E1F7E20FF31FE05BFE4F442319F0CC
:101230008081682B03C06095808168236083089556
:101240003F924F925F926F927F928F929F92AF9256
:10125000BF92CF92DF92EF92FF920F931F93CF93A3
:10126000DF93782E662E122F4052E22EF12C80E171
:10127000489F600111248CE0489FE0011124562E04
:10128000812C912CA62EB12C8E149F0491F1F40187
:101290001C3029F4EC0FFD1FE05EF44F04C0EC0D90
:1012A000FD1DE05DFA4F011107C0E4914E2E409400
:1012B00088E0382E350C04C04490FACF5314A1F0C6
:1012C00047FE02C041E001C040E0652D872D0E942D
:1012D000F308440C5394852D90E08A199B098E15D0
:1012E0009F0561F77394362C8FEF881A980A532C58
:1012F000CBCFDF91CF911F910F91FF90EF90DF90B7
:10130000CF90BF90AF909F908F907F906F905F90A5
:101310004F903F9008958F929F92AF92BF92CF923D
:10132000DF92EF92FF920F931F93CF93DF93C82F1B
:10133000D62F7A01122F4801969480E890E06C0134
:10134000C918D10880E490E05C01A21AB108F70145
:1013500080818823D9F08C2F90E0C816D9065CF4E0
:10136000D10F8D2F90E0A816B90624F480E00E94DA
:10137000C708D0E0C0E0082D212FF70141917F017F
:101380006D2F8C2F0E942009C90DE1CFDF91CF91E5
:101390001F910F91FF90EF90DF90CF90BF90AF9093
:1013A0009F908F9008959F92AF92BF92CF92DF92BD
:1013B000EF92FF920F931F93CF93DF93C82E962E39
:1013C00080E2489F80011124C62FE12CF12C165099
:1013D000A62EB12CF801EE0DFF1DE053FC4FD49169
:1013E00088E0D82EDC0E4D2F441F4427441F6C2F5D
:1013F0008C2D0E94F308DD0FCF5F8C2F90E08A19AF
:101400009B09409719F4C394D92C02C0CD11EBCF9E
:101410008FEFE81AF80A80E2E816F10411F0CD2DFA
:10142000D9CFDF91CF911F910F91FF90EF90DF9077
:10143000CF90BF90AF909F9008959F92AF92BF9230
:10144000CF92DF92EF92FF920F931F93CF93DF9390
:10145000C82E962E80E4489F80011124C62FE12CCF
:10146000F12C1C50A62EB12CF801EE0DFF1DE05FF3
:10147000FE4FD49188E0D82EDC0E4D2F441F442718
:10148000441F6C2F8C2D0E94F308DD0FCF5F8C2F33
:1014900090E08A199B09809719F4C394D92C02C053
:1014A000CD11EBCF8FEFE81AF80A80E4E816F104CB
:1014B00011F0CD2DD9CFDF91CF911F910F91FF90DA
:1014C000EF90DF90CF90BF90AF909F9008952F92B4
:1014D0003F924F925F926F927F928F929F92AF92C4
:1014E000BF92CF92DF92EF92FF920F931F93CF9311
:1014F000DF9300D01F92CDB7DEB7382E262E4A01DB
:10150000C22ED12C560127E0A20EB11C93E0B59457
:10151000A7949A95E1F7412C512CE12CF12C10E085
:1015200020E8622E712CE016F106C8F51B821A82A3
:10153000922D9E0D2A813B812C153D0550F5EA81A7
:10154000FB8183E0F695E7958A95E1F7E40DF51DBB
:10155000E80DF91DE491F0E02A813B8127703327E3
:10156000A30102C0559547952A95E2F7E423F52398
:10157000EF2B41F041E0692F8A81830D99830E940E
:10158000F30899812A813B812F5F3F4F3B832A8358
:10159000D1CF3FEFE31AF30A4A0C5B1CC4CF0F9084
:1015A0000F900F90DF91CF911F910F91FF90EF90CF
:1015B000DF90CF90BF90AF909F908F907F906F9073
:1015C0005F904F903F902F90089560E08EEA0E94C8
:1015D0008E0860E080E00E948E0860E080E10E945A
:1015E0008E0860E080E40E948E0860E081E80E943E
:1015F0008E0860E08FEC0E948E0860E081EA0E9415
:101600008E0860E080EC0E948E0860E086EA0E940E
:101610008E0860E088EA0E948E0860E08FE30E94F6
:101620008E0860E083ED0E948E0860E080E00E94FA
:101630008E0860E085ED0E948E0860E080E80E94E0
:101640008E0860E089ED0E948E0860E081EF0E94C4
:101650008E0860E08AED0E948E0860E082E10E94C0
:101660008E0860E08BED0E948E0860E080E40E94AE
:101670008E0860E080E20E948E0860E082E00E94B6
:101680008E0860E08DE80E948E0860E084E10E9490
:101690008E0860E084EA0E948E0860E086EA0E947C
:1016A0008E0860E08FEA0E948E0880E00C94C708E4
:1016B0008CE08093B8008FEF8093BB0084E0809330
:1016C000BC0008952091BC0020FDFCCF6093520522
:1016D000FC0120812093530520FF09C01092510581
:1016E00088EF8093000185EA8093BC000895FC0197
:1016F000319623E535E0D90111968A2F821B861792
:1017000068F781918C93F8CF1F920F920FB60F92CA
:1017100011242F933F938F939F93EF93FF93809187
:10172000B900883201F140F48031D9F08831D9F024
:10173000883009F04AC015C0803491F128F488330C
:1017400009F043C085EA46C08035F1F08835E9F5F7
:101750008091BB00E0915005F0E0ED5AFA4F808394
:101760002DC010925005E091500580915205E81768
:1017700028F581E08E0F80935005F0E0ED5AFA4F86
:1017800080818093BB0018C0E091500581E08E0FEE
:10179000809350058091BB00F0E0ED5AFA4F8083B2
:1017A0002091500530E08091520590E00197281774
:1017B000390714F485EC0EC085E80CC08091510502
:1017C00081608093510584E905C08091B9008093C0
:1017D000000184E08093BC00FF91EF919F918F9175
:1017E0003F912F910F900FBE0F901F901895F89476
:0217F000FFCF29
:1017F200F8312E33696E6368204F4C4544005468BB
:10180200697320697320612064656D6F20666F7251
:1018120020535344313330362F31313036204F4C40
:101822004544206D6F75646C6521004D55534943E5
:0C183200004D454E550050484F4E4500FB
:00000001FF
