:100000000C9434000C9451000C9451000C94510049
:100010000C9451000C9451000C9451000C9451001C
:100020000C9451000C9451000C9451000C9451000C
:100030000C9451000C9451000C9451000C945100FC
:100040000C9451000C9451000C9451000C945100EC
:100050000C9451000C9451000C9451000C945100DC
:100060000C9451000C94510011241FBECFEFD8E026
:10007000DEBFCDBF11E0A0E0B1E0E8E2F2E002C0F7
:1000800005900D92A831B107D9F721E0A8E1B1E0C0
:1000900001C01D92A232B207E1F70E94AA000C949F
:1000A00012010C9400001092C50083E38093C400F9
:1000B00088E18093C10086E08093C2000895FC012E
:1000C0009191992339F08091C00085FFFCCF9093E6
:1000D000C600F6CF08958F929F92AF92BF92CF92B3
:1000E000DF92EF92FF920F931F93CF93DF938C01D8
:1000F000D62F622FC1E0ED2EF12C8AE0882E912CB4
:10010000A12CB12CEC2FF0E0DC1788F06701CE1A9F
:10011000DF0AC00ED11E732FCA01A50194010E94EF
:10012000F000605DF6016083622FCF5FEBCFE00FE0
:10013000F11F31971082C801DF91CF911F910F916C
:10014000FF90EF90DF90CF90BF90AF909F908F90F7
:100150000C945F0087E087B918B80E945300C12C47
:10016000D12C7601C1E0D2E014E0289A88B18C2726
:1001700088B988B18D2788B988B1812788B92FEFD0
:1001800084E39CE0215080409040E1F700C00000F3
:1001900080E091E00E945F00A70196016AE088E19B
:1001A00091E00E946B0084E191E00E945F0028983A
:1001B0002FEF84E39CE0215080409040E1F700C0A5
:1001C00000002FEFC21620EED20625EFE20625E052
:1001D000F20658F68FEFC81AD80AE80AF80AC5CF0F
:1001E000A1E21A2EAA1BBB1BFD010DC0AA1FBB1F3B
:1001F000EE1FFF1FA217B307E407F50720F0A21BAD
:10020000B30BE40BF50B661F771F881F991F1A9419
:1002100069F760957095809590959B01AC01BD0143
:08022000CF010895F894FFCF0F
:100228005468652076616C7565206F662076616C10
:08023800203D20000D0A00002A
:00000001FF
