S0130000426C696E6B696E674C65642E73726563CE
S11300000C9434000C9451000C9451000C94510045
S11300100C9451000C9451000C9451000C94510018
S11300200C9451000C9451000C9451000C94510008
S11300300C9451000C9451000C9451000C945100F8
S11300400C9451000C9451000C9451000C945100E8
S11300500C9451000C9451000C9451000C945100D8
S11300600C948B010C94510011241FBECFEFD8E0E7
S1130070DEBFCDBF11E0A0E0B1E0E4E4F4E002C0F3
S113008005900D92AE39B107D9F721E0AEE9B1E0A0
S113009001C01D92AF3AB207E1F70E94AA000C9486
S11300A020020C9400001092C50083E38093C400E6
S11300B088E18093C10086E08093C2000895FC012A
S11300C09191992339F08091C00085FFFCCF9093E2
S11300D0C600F6CF08958F929F92AF92BF92CF92AF
S11300E0DF92EF92FF920F931F93CF93DF938C01D4
S11300F0D62F622FC1E0ED2EF12C8AE0882E912CB0
S1130100A12CB12CEC2FF0E0DC1788F06701CE1A9B
S1130110DF0AC00ED11E732FCA01A50194010E94EB
S1130120FE01605DF6016083622FCF5FEBCFE00FCD
S1130130F11F31971082C801DF91CF911F910F9168
S1130140FF90EF90DF90CF90BF90AF909F908F90F3
S11301500C945F00CF93DF9300D000D0CDB7DEB70F
S113016087E087B918B80E9453000E94440178942C
S1130170289AFF24F39497E0E92E88B18F2588B953
S11301801982EA8262E0CE0101960E9452010E9425
S11301904E01882349F081E091E00E945F0082E1F2
S11301A091E00E945F00F3CF80919F0180FD09C020
S11301B085E191E00E945F0082E191E00E945F008E
S11301C0FFCFF98261E0CE0101960E9452010E94A4
S11301D04E01882349F081E091E00E945F0082E1B2
S11301E091E00E945F00F3CF80919F0180FD09C0E0
S11301F083E391E00E945F0082E191E00E945F004E
S1130200FFCF19821A8262E0CE0101960E94740126
S11302100E944E01882349F081E091E00E945F0032
S113022082E191E00E945F00F3CF80919F0180FD05
S113023009C081E591E00E945F0082E191E00E94A3
S11302405F00FFCF2A8130E0322F22278981890184
S1130250082B17FF08C08FE691E00E945F0082E13F
S113026091E00E945F0089E891E00E945F0098019C
S113027040E050E06AE085EA91E00E946B0082E190
S113028091E00E945F0079CF8CE08093B8008FEFFB
S11302908093BB0084E08093BC0008958091BC00EF
S11302A0817008952091BC0020FDFCCF6093A001D3
S11302B0FC0120812093A10120FF09C010929F011D
S11302C088EF8093000185EA8093BC000895FC01C7
S11302D0319621EA31E0D90111968A2F821B8617C3
S11302E068F781918C93F8CF2091BC0020FDFCCF5E
S11302F020919F0120FD04C080919F018170089589
S113030021EA31E0FC01D9018A2F821B8617A0F76C
S11303108D918193F9CF1F920F920FB60F921124F2
S11303202F933F938F939F93EF93FF938091B90003
S1130330883201F140F48031D9F08831D9F0883025
S113034009F04AC015C0803491F128F4883309F0CB
S113035043C085EA46C08035F1F08835E9F58091DF
S1130360BB00E0919E01F0E0EF55FE4F80832DC06D
S113037010929E01E0919E018091A001E81728F55A
S113038081E08E0F80939E01F0E0EF55FE4F808157
S11303908093BB0018C0E0919E0181E08E0F809392
S11303A09E018091BB00F0E0EF55FE4F80832091C9
S11303B09E0130E08091A00190E001972817390751
S11303C014F485EC0EC085E80CC080919F01816017
S11303D080939F0184E905C08091B9008093000156
S11303E084E08093BC00FF91EF919F918F913F91A6
S11303F02F910F900FBE0F901F901895A1E21A2E07
S1130400AA1BBB1BFD010DC0AA1FBB1FEE1FFF1FB4
S1130410A217B307E407F50720F0A21BB30BE40B04
S1130420F50B661F771F881F991F1A9469F760954B
S11304307095809590959B01AC01BD01CF01089505
S1070440F894FFCF5A
S1130444F85472616E7363656976657220627573BC
S113045479000D0A004C617374207472616E732008
S11304646E6F74206F6B202831292073746F707041
S11304746564004C617374207472616E73206E6FD2
S113048474206F6B202832292073746F7070656434
S1130494004C617374207472616E73206E6F7420E7
S11304A46F6B202833292073746F70706564005453
S11304B4656D70657261747572652072656C6174C2
S11304C46564206572726F720054656D7065726143
S11104D47475726520546F726567203D2000B8
S9030000FC
