:100000000C9434000C9446000C9446000C9446006A
:100010000C9446000C9446000C9446000C94460048
:100020000C9446000C9446000C9446000C94460038
:100030000C9446000C9446000C9446000C94460028
:100040000C9446000C9446000C9467000C948700B6
:100050000C9446000C9446000C9446000C94460008
:100060000C9446000C94460011241FBECFEFD8E03C
:10007000DEBFCDBF21E0A0E0B1E001C01D92A43100
:10008000B207E1F70E9448000C94D7000C940000DE
:1000900083E390E00E9454007894209A289A0E946A
:1000A000B1000E94C200FBCF9093C5008093C400B2
:1000B00088E98093C10086E08093C20010920A0113
:1000C00010920B01109200011092010108951F92ED
:1000D0000F920FB60F9211248F939F93EF93FF937C
:1000E0008091C600E0910B01EF5FE770E0930B0198
:1000F00090910A01F0E0E45FFE4F8083FF91EF9161
:100100009F918F910F900FBE0F901F9018951F9287
:100110000F920FB60F9211248F939F93EF93FF933B
:100120009091010180910001981769F0E091000120
:10013000EF5FE770E0930001F0E0EE5FFE4F80813B
:100140008093C60005C08091C1008F7D8093C1005F
:10015000FF91EF919F918F910F900FBE0F901F9085
:10016000189590910B0180910A019817D1F3E091B5
:100170000A01EF5FE770E0930A01F0E0E45FFE4FF1
:1001800080810895909101019F5F977020910001F7
:100190009217E1F3E92FF0E0EE5FFE4F808390933A
:1001A00001018091C10080628093C1000895F8949C
:0201B000FFCF7F
:00000001FF
